{
  "_format": "hh-sol-artifact-1",
  "contractName": "BananaTest",
  "sourceName": "contracts/samples/BananaTest.sol",
  "abi": [
    {
      "inputs": [
        {
          "internalType": "bytes32",
          "name": "userOpHash",
          "type": "bytes32"
        },
        {
          "internalType": "bytes",
          "name": "signature",
          "type": "bytes"
        }
      ],
      "name": "check",
      "outputs": [
        {
          "components": [
            {
              "internalType": "bool",
              "name": "res",
              "type": "bool"
            },
            {
              "internalType": "bytes32",
              "name": "chash",
              "type": "bytes32"
            },
            {
              "internalType": "bytes32",
              "name": "uHash",
              "type": "bytes32"
            },
            {
              "internalType": "bytes",
              "name": "base64RequestId",
              "type": "bytes"
            }
          ],
          "internalType": "struct BananaTest.response",
          "name": "",
          "type": "tuple"
        }
      ],
      "stateMutability": "pure",
      "type": "function"
    },
    {
      "inputs": [
        {
          "internalType": "bytes32",
          "name": "data",
          "type": "bytes32"
        }
      ],
      "name": "toHex",
      "outputs": [
        {
          "internalType": "string",
          "name": "",
          "type": "string"
        }
      ],
      "stateMutability": "pure",
      "type": "function"
    }
  ],
  "bytecode": "0x6080806040523461001657610cff908161001c8239f35b600080fdfe6080604052600436101561001257600080fd5b60003560e01c80630bf4fe671461008c576349e894d81461003257600080fd5b346100875760207ffffffffffffffffffffffffffffffffffffffffffffffffffffffffffffffffc3601126100875761008361006f600435610878565b604051918291602083526020830190610809565b0390f35b600080fd5b346100875760407ffffffffffffffffffffffffffffffffffffffffffffffffffffffffffffffffc3601126100875760243567ffffffffffffffff811161008757366023820112156100875780600401356100e6816107cf565b916100f4604051938461078e565b81835236602483830101116100875781600092602460209301838601378301015260608060405161012481610743565b6000815260006020820152600060408201520152610143600435610878565b60005b81518110156101f0576101847fff0000000000000000000000000000000000000000000000000000000000000061017d8385610ba4565b5116610bb5565b60001a6101918284610ba4565b537fffffffffffffffffffffffffffffffffffffffffffffffffffffffffffffffff81146101c157600101610146565b7f4e487b7100000000000000000000000000000000000000000000000000000000600052601160045260246000fd5b508051907ffffffffffffffffffffffffffffffffffffffffffffffffffffffffffffffffd82116101c15760036002830104807fffffffffffffffffffffffffffffffffffffffffffffffffffffffffffffffff04600411811515166101c157600383066003106101c15761027290600380859695068103069060021b610c4e565b907fffffffffffffffffffffffffffffffffffffffffffffffffffffffffffffffe06102b66102a0846107cf565b936102ae604051958661078e565b8085526107cf565b0136602084013760009260005b7ffffffffffffffffffffffffffffffffffffffffffffffffffffffffffffffffc85116101c15782516003860111610509576102ff8584610ba4565b517ffffffffffffffffffffffffffffffffffffffffffffffffffffffffffffffffe86116101c1576103346001870185610ba4565b51907ffffffffffffffffffffffffffffffffffffffffffffffffffffffffffffffffd87116101c15762ff000061ff0061037160028a0188610ba4565b5160f81c9360f01c169160e81c1617177fff0000000000000000000000000000000000000000000000000000000000000090603f90826103bd838360121c166103b8610c59565b610ba4565b5116926103f6816103d58585600c1c166103b8610c59565b511693826103ea828660061c166103b8610c59565b511693166103b8610c59565b51167ffffffffffffffffffffffffffffffffffffffffffffffffffffffffffffffffe85116101c1577ffffffffffffffffffffffffffffffffffffffffffffffffffffffffffffffffd85116101c1577ffffffffffffffffffffffffffffffffffffffffffffffffffffffffffffffffc85116101c15760001a61047d6003860189610ba4565b5360001a61048e6002850188610ba4565b5360001a61049f6001840187610ba4565b5360001a6104ad8286610ba4565b537ffffffffffffffffffffffffffffffffffffffffffffffffffffffffffffffffb81116101c157600401937ffffffffffffffffffffffffffffffffffffffffffffffffffffffffffffffffc81116101c157600301936102c3565b9091856003810661058c575b5050508151602083012090608081805181010312610087576080610083910151926040519261054384610743565b84811484526020840194855260408401908152606084019182526040519485946020865251151560208601525160408501525160608401525160808084015260a0830190610809565b6105a361059d600383068451610c4e565b83610ba4565b519060026003600092061492836106f8575b5061ff0062ff00009160081b169160e81c1617907fff0000000000000000000000000000000000000000000000000000000000000091826105fe603f8360121c166103b8610c59565b511692610627603f826106188286600c1c166103b8610c59565b51169360061c166103b8610c59565b511692610632610c59565b51156106c95760001a6106458588610ba4565b537ffffffffffffffffffffffffffffffffffffffffffffffffffffffffffffffffe84116101c15760001a61067d6001850187610ba4565b53610689575b80610515565b7ffffffffffffffffffffffffffffffffffffffffffffffffffffffffffffffffd82116101c15760026106c19160001a920184610ba4565b538280610683565b7f4e487b7100000000000000000000000000000000000000000000000000000000600052603260045260246000fd5b80519150600182106101c15761073861ff00917fffffffffffffffffffffffffffffffffffffffffffffffffffffffffffffffff62ff0000940190610ba4565b5160f81c91506105b5565b6080810190811067ffffffffffffffff82111761075f57604052565b7f4e487b7100000000000000000000000000000000000000000000000000000000600052604160045260246000fd5b90601f7fffffffffffffffffffffffffffffffffffffffffffffffffffffffffffffffe0910116810190811067ffffffffffffffff82111761075f57604052565b67ffffffffffffffff811161075f57601f017fffffffffffffffffffffffffffffffffffffffffffffffffffffffffffffffe01660200190565b91908251928382526000905b8482106108605750601f84602094957fffffffffffffffffffffffffffffffffffffffffffffffffffffffffffffffe09311610853575b0116010190565b600085828601015261084c565b90602090818082850101519082860101520190610815565b6108b17fffffffffffffffffffffffffffffffff000000000000000000000000000000006108a78184166108f5565b9260801b166108f5565b604051917f3078000000000000000000000000000000000000000000000000000000000000602084015260228301526042820152604281526108f281610743565b90565b8060401c907fffffffff000000000000000000000000000000000000000000000000000000006fffffffff0000000000000000000000006bffffffff000000000000000084167bffffffff00000000000000000000000000000000000000000000000084161760201c9316911617178060101c907fff00000000000000ff00000000000000ff00000000000000ff000000000000007bff00000000000000ff00000000000000ff00000000000000ff0000007aff00000000000000ff00000000000000ff00000000000000ff000084167eff00000000000000ff00000000000000ff00000000000000ff00000000000084161760081c9316911617176004907f0f000f000f000f000f000f000f000f000f000f000f000f000f000f000f000f007e0f000f000f000f000f000f000f000f000f000f000f000f000f000f000f000f8260081c1691831c1617907f30303030303030303030303030303030303030303030303030303030303030309180198311610b76577ff9f9f9f9f9f9f9f9f9f9f9f9f9f9f9f9f9f9f9f9f9f9f9f9f9f9f9f9f9f9f9f98111610b76577f0f0f0f0f0f0f0f0f0f0f0f0f0f0f0f0f0f0f0f0f0f0f0f0f0f0f0f0f0f0f0f0f7f06060606060606060606060606060606060606060606060606060606060606068201831c16807fffffffffffffffffffffffffffffffffffffffffffffffffffffffffffffffff0460071181151516610b485760070291821982850111610b1a5750010190565b6011907f4e487b71000000000000000000000000000000000000000000000000000000006000525260246000fd5b6011837f4e487b71000000000000000000000000000000000000000000000000000000006000525260246000fd5b6011827f4e487b71000000000000000000000000000000000000000000000000000000006000525260246000fd5b9081518110156106c9570160200190565b7fff000000000000000000000000000000000000000000000000000000000000008082167f41000000000000000000000000000000000000000000000000000000000000008110159081610c23575b50610c0d575090565b9060f81c60df81116101c15760200160f81b1690565b7f5a000000000000000000000000000000000000000000000000000000000000009150111538610c04565b8181106101c1570390565b604051906060820182811067ffffffffffffffff82111761075f57604052604082527f6768696a6b6c6d6e6f707172737475767778797a303132333435363738392d5f6040837f4142434445464748494a4b4c4d4e4f505152535455565758595a6162636465666020820152015256fea26469706673582212204366bc846f5106488b8e41b0610642fc5bd0efd2af3f39f48b32dbea8ba7f41f64736f6c634300080f0033",
  "linkReferences": {},
  "deployedLinkReferences": {}
}